:020000040800F2
:10000000D0080020617000081D0400081F040008CB
:1000100023040008270400082B0400080000000047
:100020000000000000000000000000002F04000895
:100030003104000800000000330400083504000803
:100040007B7000087B7000087B7000087B700008E4
:100050007B7000087B7000087B7000087B700008D4
:100060007B7000087B7000087B7000087B700008C4
:100070007B7000087B7000087B7000087B700008B4
:100080007B7000087B7000087B7000087B700008A4
:100090007B7000087B7000087B7000087B70000894
:1000A0007B7000087B7000087B7000087B70000884
:1000B0007B7000087B7000087B7000087B70000874
:1000C0007B7000087B7000087B7000087B70000864
:1000D0007B7000087B700008396F00087B70000897
:1000E0007B7000087B7000087B7000087B70000844
:1000F0007B7000087B7000087B7000087B70000834
:100100007B7000087B7000087B7000087B70000823
:100110007B7000087B7000087B7000087B70000813
:100120007B7000087B7000087B7000087B70000803
:100130007B7000087B7000087B7000087B700008F3
:100140007B7000087B7000087B7000087B700008E3
:100150007B7000087B7000087B7000087B700008D3
:100160007B7000087B7000087B7000087B700008C3
:100170007B7000087B7000087B7000087B700008B3
:100180007B7000087B70000800F002F800F04FF868
:100190000AA090E8000C82448344AAF10107DA45E2
:1001A00001D100F044F8AFF2090EBAE80F0013F0E5
:1001B000010F18BFFB1A43F00103184780CE00005F
:1001C000A0CE0000103A24BF78C878C1FAD85207F0
:1001D00024BF30C830C144BF04680C6070470000C1
:1001E0000023002400250026103A28BF78C1FBD840
:1001F000520728BF30C148BF0B60704766290BF01B
:100200000882642908F0C483782908F0FD8300205F
:1002100070471FB50BF0F3F908F0AAFE04000020A8
:1002200000210AF039FBE0601FBD10B510BD08F0D9
:10023000BBFF1146FFF7EDFF00F008F808F0D9FF0B
:1002400003B4FFF7F2FF03BC06F008FE2DED028BAE
:100250008AB04FF4A06006F023FFA82006F07CFDD2
:100260004FF4964006F008FE00F0EEF901F0CCF8ED
:1002700005F0A2FB05F048F805F062FD05F00FFA65
:1002800005F0C4F806F0D2F841F28831292006F0D2
:1002900091FB06F0A4FC00BF05F092FA0028FBD108
:1002A00006208DF8040031208DF8050032208DF8ED
:1002B000060033208DF8070034208DF80800352023
:1002C0008DF8090036208DF80A0005F034FB8BE02C
:1002D0004FF47A7006F0A2FD06F0A0FC01A805F02C
:1002E000B8FAFF21E12005F08FFA05F072FD06F063
:1002F00085FA3E4880ED000A00680BF00FF941ECEA
:10030000180B53EC182B3AA008F002FB13208DF8C1
:1003100004003B4800788DF80500394840788DF896
:100320000600374880788DF807003548C0788DF88A
:100330000800334800798DF80900314840798DF87C
:100340000A002F48007A8DF80B002D48407A8DF86E
:100350000C002B48807A8DF80D002948C07A8DF862
:100360000E002748007B8DF80F002548407B8DF854
:100370001000244840788DF81100224800788DF84C
:1003800012002048C0788DF813001E4880788DF840
:1003900014001C4840798DF815001A4800798DF832
:1003A0001600124890ED000ABCEEC00A10EE100ACA
:1003B000C0B28DF81700002410E013480088092807
:1003C0000BDD0020104908801048B0F900201048CB
:1003D000B0F900100FA008F09BFA641C102CECDBA5
:1003E00040F2DC5006F01AFD72E700000000002029
:1003F0006865696768742069732025660D0A0000C6
:100400009C000020040000208800002082000020C2
:10041000800000202564256400000000704700BFB4
:10042000FEE700BFFEE700BFFEE700BFFEE7704744
:1004300070477047704700000CB500200190009095
:100440007648006840F480307449086000BF734803
:10045000006800F4003000900198401C0190009862
:1004600018B90198B0F5A04FF1D16C48006800F4BC
:10047000003010B10120009001E0002000900098B1
:10048000012846D165484030006840F080506349FB
:10049000403108606248006840F4404060490860AC
:1004A0005E48083000685D49083108600846006809
:1004B00040F4004008600846006840F4A05008601E
:1004C0005848091F0860081F006840F08070091F25
:1004D000086000BF5148006800F000700028F9D0A3
:1004E00040F20570504908604C480830006820F020
:1004F00003004A49083108600846006840F00200DD
:10050000086000BF45480830006800F00C0008286B
:10051000F8D10CBD10B54548006840F4700043495F
:1005200008603E48006840F001003C490860002037
:100530003A4908310860394800683D490840374960
:1005400008603C48091D0860081F006820F48020EE
:10055000091F0860002031490C310860FFF76CFF6B
:100560004FF0006031498039086010BD70B500203F
:100570000022022300240221284D08352D6805F0B1
:100580000C0020B1042806D0082834D107E02A4DF9
:100590002A4E356033E02A4D284E35602FE01F4D3E
:1005A0002D1D2D68C5F380541C4D2D1D2D6805F0A3
:1005B0003F0154B1224DB5FBF1F5184E361D36689A
:1005C000C6F3881605FB06F209E01B4DB5FBF1F5F5
:1005D000124E361D3668C6F3881605FB06F20F4D1F
:1005E0002D1D2D68C5F301456D1C6B00B2FBF3F5A5
:1005F000124E356003E0104D104E356000BF00BF55
:10060000064D08352D68C5F303150E4E705D0B4D74
:100610002D68C540094E356070BD000000380240AD
:100620000070004008544007003C024088ED00E0A4
:10063000FFFFF6FE103000240024F4000C00002020
:1006400000127A00100000201CB50121202007F0C4
:100650009FFB4FF4C060009001208DF80400002043
:100660008DF8060003208DF8050001208DF80700A5
:100670006946044806F00AFE4FF4C061014806F0DE
:1006800081FE1CBD0014024001B5BDF800000090C1
:10069000BDF80000F849088008BD01B5BDF80000AC
:1006A0000090BDF80000F449891C088008BD08B519
:1006B000F148801C00880090BDF8000008BDEE4A9B
:1006C00010804FF0D842A2F88010704710B5044651
:1006D0002046FFF7D9FF052006F058FBFFF7E7FF9C
:1006E00010BDE6480089E44908807047E249891C4A
:1006F0000880704730B5014601F01F04C1F345136F
:10070000CA0AE50205EB43151544A8B230BD00BF87
:100710000100A0F10102D0B2FAD1704730B5044611
:100720000D46D648808849F24131884205D0D348E9
:10073000808845F21031884214D1D0494889FFF7AA
:10074000A3FF2012FFF7A9FFE0B2FFF7A6FFCB49F6
:100750008889FFF799FF2812FFF79FFFE8B2FFF79C
:100760009CFFABE0C548808846F6040188421DD155
:10077000C2488079012804D1C0480088401E001B6F
:1007800084B2BE494889FFF77FFF2012FFF785FF3B
:10079000E0B2FFF782FFB9498889FFF775FF281299
:1007A000FFF77BFFE8B2FFF778FF87E0B348808868
:1007B00041F66311884247D1B0488079A8B9AF4863
:1007C0000088401E001B84B2AC494889FFF75CFFDB
:1007D0000020FFF762FF0020FFF75FFF2012FFF706
:1007E0005CFFE0B2FFF759FF16E0A4494889FFF724
:1007F0004BFF2012FFF751FFE0B2FFF74EFF9F497A
:100800000988491EC1F30F20FFF747FF9B4909786C
:10081000491EC8B2FFF741FF98498889FFF734FFA6
:100820002812FFF73AFFE8B2FFF737FF93494988EC
:10083000491EC1F30F20FFF730FF90498978491E08
:10084000C8B2FFF72AFF39E08C48808845F2105182
:10085000884220D189494889FFF716FF2012FFF707
:100860001CFF86494989491C88B2FFF70DFFE0B299
:10087000FFF713FF81498889FFF706FF2812FFF76A
:100880000CFF7E498989491C88B2FFF7FDFEE8B25A
:10089000FFF703FF12E079488079012804D17748F7
:1008A0000088401E001B84B2744948892146FFF726
:1008B00006FF724988892946FFF701FF30BD2DE9FF
:1008C000F04105460E4600240027A0466B480088EC
:1008D000A84203DD69484088B04202DC0020BDE840
:1008E000F08131462846FFF719FF6448808849F2B5
:1008F0004131884211D06148808846F6040188421F
:100900000BD05E48808845F21031884205D05B48A4
:10091000808841F66311884203D12E20FFF7B4FE90
:100920000DE05648808845F21051884204D14FF4BA
:100930003850FFF7A9FE02E02220FFF7A5FE4F483E
:10094000808849F22031884202D10220FFF7DFFE81
:10095000FFF7ADFE04464948808841F6631188429E
:1009600001D12046BBE70220FFF7D1FEFFF79FFE33
:1009700004464248808849F2413188420BD03F48C2
:10098000808845F21031884205D03C48808845F285
:10099000105188420AD10220FFF7B9FEFFF787FE07
:1009A0008046E7B24FF6FF7000EA07273348808899
:1009B00049F22531884216D03048808844F23551BA
:1009C000884210D02D488088091F88420BD02B48C0
:1009D00080884BF20551884205D0284880884CF227
:1009E0000551884201D1204679E72448808849F2A0
:1009F000413188420BD02148808845F2103188422D
:100A000005D01E48808845F21051884207D1E01277
:100A1000C002B91240EA411040EAE8205FE72046F0
:100A2000FFF768FE5BE700B51448808849F2413162
:100A3000884211D01148808846F6040188420BD0C4
:100A40000E48808845F21031884205D00B488088D6
:100A500041F66311884203D12920FFF715FE14E007
:100A60000648808845F21051884209D14FF424503D
:100A7000FFF70AFE09E000007E00006CAA000020DB
:100A800040F273110720FFF71AFE00BD00B5FD48C4
:100A9000808849F24131884211D0FA48808846F670
:100AA000040188420BD0F748808845F21031884213
:100AB00005D0F448808841F66311884203D128208C
:100AC000FFF7E2FD0EE0EF48808845F210518842C2
:100AD00004D14FF42050FFF7D7FD03E00021072099
:100AE000FFF7EDFD00BDF0B5054600240027E54801
:100AF000807901280BD1E348808846F604018842BA
:100B000005D0E048808841F66311884208D1DD486D
:100B10008079F0B9DB48808841F66311884218D1AA
:100B2000082D15D2DFE805F00406080A0C0E101295
:100B300006250DE007250BE0042509E0052507E063
:100B4000012505E0002503E0032501E0022500BFA3
:100B500000BFCC48808849F24131884217D0C9484B
:100B6000808846F60401884211D0C648808845F244
:100B7000103188420BD0C348808845F2105188421A
:100B800005D0C048808841F6631188427ED1082D87
:100B90001CD2DFE805F00406090C0F12151800BF7F
:100BA00014E044F0800411E044F040040EE044F00E
:100BB000C0040BE044F0200408E044F0600405E0C9
:100BC00044F0A00402E044F0E00400BF00BFAD48E0
:100BD000808845F21051884202D14FF4585700E006
:100BE0003627A848808845F2103188420DD0A548A4
:100BF000808845F21051884207D0A248808841F68B
:100C00006311884201D044F008049E48808846F66B
:100C10000401884201D144F0020421463846FFF71E
:100C20004EFD9848808841F6631188421DD004F03B
:100C3000200068B19348008892494988884214DAB4
:100C40009048068840888F490880084646800CE016
:100C50008C4800888B494988884206DD8948068887
:100C6000408888490880084646808648808845F242
:100C70001051884254D183494889FFF705FD00206F
:100C8000FFF70BFD7F494989491C00E077E088B2F6
:100C9000FFF7FAFC0020FFF700FD7A494989891C1B
:100CA00088B2FFF7F1FC77490988491EC1F30F208C
:100CB000FFF7F3FC73494989C91C88B2FFF7E4FCCC
:100CC00070490978491EC8B2FFF7E7FC6D49888969
:100CD000FFF7DAFC0020FFF7E0FC6A498989491C2C
:100CE00088B2FFF7D1FC0020FFF7D7FC654989895E
:100CF000891C88B2FFF7C8FC62494988491EC1F3C4
:100D00000F20FFF7CAFC5F498989C91C88B2FFF729
:100D1000BBFC5C498978491EC8B2FFF7BEFC55E0B0
:100D200058494889FFF7B0FC0020FFF7B6FC0020C7
:100D3000FFF7B3FC53490988491EC1F30F20FFF7A1
:100D4000ACFC50490978491EC8B2FFF7A6FC4D49D2
:100D50008889FFF799FC0020FFF79FFC0020FFF730
:100D60009CFC48494988491EC1F30F20FFF795FCB8
:100D700044498978491EC8B2FFF78FFC26E0082D48
:100D80001CD2DFE805F004070A0D0F12151844F015
:100D9000300413E044F0100410E044F020040DE0AF
:100DA00000BF0BE044F0380408E044F0280405E0FC
:100DB00044F0180402E044F0080400BF00BF032719
:100DC00044F4805421463846FFF779FCF0BD30B535
:100DD00004460D4629462046FFF7A0FCFFF781FC9C
:100DE000294800882949088030BD70B504460D4661
:100DF00016462448808849F24131884205D021486E
:100E0000808845F21031884214D11E494889FFF785
:100E10003BFC2012FFF741FCE0B2FFF73EFC194912
:100E20008889FFF731FC2812FFF737FCE8B2FFF79B
:100E300034FC93E01348808845F21051884227D152
:100E400010494889FFF720FC2012FFF726FC0D49C6
:100E50004989491C88B2FFF717FCE0B2FFF71DFC77
:100E600008498889FFF710FC2812FFF716FC05498E
:100E70008989491C88B2FFF707FCE8B2FFF70DFC2F
:100E80006CE00000AA000020200000208000006C20
:100E9000FE48808841F66311884228D1FB4880795A
:100EA00020B9FA480088401E001B84B2F7494889DF
:100EB000FFF7EAFB2012FFF7F0FBE0B2FFF7EDFBD4
:100EC0002012FFF7EAFBE0B2FFF7E7FBEF49888962
:100ED000FFF7DAFB2812FFF7E0FBE8B2FFF7DDFBD4
:100EE0002812FFF7DAFBE8B2FFF7D7FB36E0E74856
:100EF000808846F6040188421DD1E44880790128A3
:100F000004D1E2480088401E001B84B2DF494889B2
:100F1000FFF7BAFB2012FFF7C0FBE0B2FFF7BDFB03
:100F2000DA498889FFF7B0FB2812FFF7B6FBE8B271
:100F3000FFF7B3FB12E0D5488079012804D1D348EC
:100F40000088401E001B84B2D04948892146FFF723
:100F5000B6FBCE4988892946FFF7B1FBCB4800890B
:100F6000CB4908804FF0D840A0F8806070BD70B5C4
:100F70002DED048B0446BE20FFF786FB0520FFF70E
:100F80008CFB204609F085FF41EC190B9FEDC10B4E
:100F900053EC102B09F0CCFF41EC180B09F0E4FEE8
:100FA00085B22846FFF779FB0120FFF776FBFF208B
:100FB000FFF773FB0020FFF770FB0020FFF76DFBCE
:100FC000BDEC048B70BD10B50446002C66D1AF4952
:100FD0008871F02008804FF4A0704880084680880F
:100FE00049F2413188420BD0A848808846F6040176
:100FF000884205D0A548808845F2103188421AD130
:101000002C20A24908812A2048812B20888108466B
:10101000808846F60401884205D09C48808845F2C5
:101020001031884206D14FF4A070984908804FF4DF
:10103000F0704880A1E09548808845F210518842C0
:1010400010D14FF43050914908814FF42850488115
:101050004FF42C5088814FF4F07008804FF44870A2
:1010600048808AE08948808841F6631188420DD122
:101070002C20864908812B2048812A2088814FF422
:10108000F07008804FF44870488076E022207F4955
:10109000088120204881212088816EE001207B4941
:1010A00088714FF4A0700880F0204880084680883E
:1010B00049F24131884205D07448808845F21031A8
:1010C000884207D12C20714908812A2048812B2091
:1010D00088813FE06D48808846F60401884207D148
:1010E0002C206A4908812B2048812A20888131E000
:1010F0006648808845F21051884210D14FF4305034
:10110000624908814FF4285048814FF42C5088815F
:101110004FF4487008804FF4F07048801AE05B4844
:10112000808841F6631188420DD12C2057490881EF
:101130002A2048812B2088814FF4487008804FF482
:10114000F070488006E02220504908812120488123
:10115000202088814D48808846F60401884205D0C9
:101160004A48808845F21031884206D14FF4F07029
:10117000464908804FF4A07048800020FFF7B3FC78
:1011800010BD2DE9F04F86B004460D4690469946B5
:1011900004EB0800401E86B205EB0900401E87B232
:1011A0003A48808849F24131884215D037488088D2
:1011B00045F2103188420FD03448808846F6040149
:1011C000884209D031488079012826D12F4880886B
:1011D00041F66311884220D12C494889FFF754FA1F
:1011E0002012FFF75AFAE0B2FFF757FA3012FFF772
:1011F00054FAF0B2FFF751FA24498889FFF744FA0C
:101200002812FFF74AFAE8B2FFF747FA3812FFF759
:1012100044FAF8B2FFF741FAC1E01C48808841F671
:10122000631188423DD119480088A0EB0800001BDB
:1012300084B205EB0900401E1FFA80F91349488962
:10124000FFF722FA2012FFF728FAE0B2FFF725FA9B
:1012500004EB0801491EC1F30F20FFF71EFA04EB4F
:101260000801491EC8B2FFF718FA08498889FFF734
:101270000BFA2812FFF711FAE8B2FFF70EFA4FEA5D
:101280002920FFF70AFA09F0FF0007E0AA00002072
:101290007E00006C6666666666660440FFF7FDF9D0
:1012A0007DE0FE48808845F21051884244D1FB49D8
:1012B0004889FFF7E9F92012FFF7EFF9F749498963
:1012C000491C88B2FFF7E0F9E0B2FFF7E6F9F3490D
:1012D0004989891C88B2FFF7D7F93012FFF7DDF989
:1012E000EE494989C91C88B2FFF7CEF9F0B2FFF781
:1012F000D4F9EA498889FFF7C7F92812FFF7CDF931
:10130000E6498989491C88B2FFF7BEF9E8B2FFF7C0
:10131000C4F9E2498989891C88B2FFF7B5F9381206
:10132000FFF7BBF9DD498989C91C88B2FFF7ACF921
:10133000F8B2FFF7B2F932E0D848807901280ED12F
:10134000AA46BB46D5480088801B401E80B201904B
:10135000D2480088001B401E80B2009003E0A246E5
:10136000B3460195009750200590512004905220DB
:1013700003905320029051460598FFF7A0F9594673
:101380000498FFF79CF901990398FFF798F90099E1
:101390000298FFF794F929462046FFF7BFF906B0F7
:1013A000BDE8F08F70B504460026BC48058840882B
:1013B0004543BA48808846F60401884216D1B748AA
:1013C0008079012812D10020B44988712A204881EF
:1013D0002B20888100210846FFF7A0F90120AF49A2
:1013E00088712B2048812A20888103E0002108464B
:1013F000FFF794F9FFF775F9002602E0A84804808A
:10140000761CAE42FAD370BD00B5A1B0002020908A
:1014100001217A2006F0BCFC0121084606F0F0FC10
:101420004FF400401E9001208DF87C0000208DF8C4
:101430007E0002208DF87D0001208DF87F001EA91E
:10144000984805F023FF4CF233701E9002208DF86F
:101450007C0000208DF87E0003208DF87D000120A7
:101460008DF87F001EA9904805F010FF4FF68070A0
:101470001E9002208DF87C0000208DF87E00032055
:101480008DF87D0001208DF87F001EA9874805F0AA
:10149000FDFE4FF480501E9002208DF87C0000204D
:1014A0008DF87E0003208DF87D0001208DF87F00EF
:1014B0001EA97F4805F0EAFE4FF480501E900220DE
:1014C0008DF87C0000208DF87E0003208DF87D00D3
:1014D00001208DF87F001EA9764805F0D7FE0C226A
:1014E0000021714805F05DFF0C2201216E4805F0D6
:1014F00058FF0C2204216C4805F053FF0C220521F3
:10150000694805F04EFF0C220821674805F049FFA5
:101510000C220921644805F044FF0C220A2162488C
:1015200005F03FFF0C220E215F4805F03AFF0C2228
:101530000F215D4805F035FF0C2207215B4805F0BF
:1015400030FF0C220821594805F02BFF0C220921FD
:10155000564805F026FF0C220A21544805F021FFC9
:101560000C220B21514805F01CFF0C2211464F485C
:1015700005F017FF0C220D214C4805F012FF0C223C
:101580000E214A4805F00DFF0C220F21474805F0B7
:1015900008FF0C221146464805F003FF0C221146B5
:1015A000444805F0FEFE0F200890002009903C20E2
:1015B0000A9000200B900C900D900E900920019045
:1015C00000200290082003900020049005900690CF
:1015D000079006200F90002010901190102012907C
:1015E0000020139015901490169017904FF480508F
:1015F0001890002019904FF480401A9000201B9002
:1016000008A81C9001A81D900FA805F01EFF01213D
:10161000062005F0A5FF322005F000FC0121002086
:10162000FFF74DF8322005F0F9FB0020FFF74EF8E8
:101630001A49888008468088FF280ADB0846808887
:101640004FF6FF71884204D014488088B0F5134FDC
:101650007ED1D320FFF718F8FFF729F80F498880CB
:10166000FFF725F80D498880FFF721F80B4988809E
:10167000084680884FF6FF7101EA002007498880FC
:10168000FFF715F80549898808430449888008460A
:10169000808849F2413188425AD00DE0AA000020EA
:1016A0008000006C00040240000C02400010024068
:1016B0000014024000180240BF20FEF7E5FFFEF7CD
:1016C000F6FFFE498880FEF7F2FFFC498880FEF7AE
:1016D000EEFFFA498880FEF7EAFFF849888008465D
:1016E00080884FF6FF7101EA0020F4498880FEF7F8
:1016F000DEFFF24989880843F049888008468088DF
:1017000046F6040188427AD0D420FEF7BDFFFEF7EA
:10171000CEFFEA498880FEF7CAFFE8498880FEF7D5
:10172000C6FFE6498880084680884FF6FF7101EAC7
:101730000020E2498880FEF7BAFFE0498988084323
:10174000DE4988800846808845F21031884200E0F2
:1017500055E054D04FF45A40FEF796FFFEF7A7FF2E
:10176000D64988804FF45B40FEF78EFFFEF79FFF5F
:10177000D2498880084680884FF6FF7101EA002030
:10178000CE4988804FF45C40FEF77EFFFEF78FFF66
:10179000CA4989880843C949888008468088B0F5C5
:1017A000004F02D145F210508880C448808845F22D
:1017B0001051884223D0A120FEF766FFFEF777FF85
:1017C000BE498880FEF773FFBC4988800846808840
:1017D0004FF6FF7101EA0020B8498880FEF767FFE5
:1017E000B64989880843B54988800846808845F20B
:1017F0006171884203D141F66310B0498880AF48D7
:10180000808849F24131884211D0AC48808845F245
:10181000103188420BD0A948808845F21051884287
:1018200005D0A648808841F6631188421DD1A4489E
:10183000006820F00F004FF02041C1F81C0108465D
:10184000D0F81C0120F47060C1F81C010846D0F8E3
:101850001C0140F00300C1F81C010846D0F81C012F
:1018600040F40070C1F81C0128E09448808846F6D6
:101870000401884205D0914880884CF20551884285
:101880001CD18F48006820F00F004FF02041C1F8B4
:101890001C010846D0F81C0120F47060C1F81C013E
:1018A0000846D0F81C0140F00A00C1F81C010846A7
:1018B000D0F81C0140F44060C1F81C017F488188C9
:1018C00080A007F025F87D48808849F241318842A0
:1018D0007ED1CF20FEF7D8FE0020FEF7DEFEC1202D
:1018E000FEF7DBFE3020FEF7D8FEED20FEF7CCFE43
:1018F0006420FEF7D2FE0320FEF7CFFE1220FEF793
:10190000CCFE8120FEF7C9FEE820FEF7BDFE852053
:10191000FEF7C3FE1020FEF7C0FE7A20FEF7BDFEE4
:10192000CB20FEF7B1FE3920FEF7B7FE2C20FEF7E4
:10193000B4FE0020FEF7B1FE3420FEF7AEFE02201A
:10194000FEF7ABFEF720FEF79FFE2020FEF7A5FE78
:10195000EA20FEF799FE0020FEF79FFE0020FEF72A
:101960009CFEC020FEF790FE1B20FEF796FEC120D5
:10197000FEF78AFE0120FEF790FEC520FEF784FEEA
:101980003020FEF78AFE3020FEF787FEC720FEF7E4
:101990007BFEB720FEF781FE3620FEF775FE48205D
:1019A000FEF77BFE3A20FEF76FFE5520FEF775FE30
:1019B000B120FEF769FE0020FEF76FFE1A20FEF749
:1019C0006CFEB620FEF760FE0A20FEF766FE00E021
:1019D000A5E0A220FEF761FEF220FEF755FE0020F2
:1019E000FEF75BFE2620FEF74FFE0120FEF755FEB8
:1019F000E020FEF749FE0F20FEF74FFE2A20FEF7FB
:101A00004CFE2820FEF749FE0820FEF746FE0E2079
:101A1000FEF743FE0820FEF740FE5420FEF73DFE91
:101A2000A920FEF73AFE4320FEF737FE0A20FEF714
:101A300034FE0F20FEF731FE0020FEF72EFE0020C0
:101A4000FEF72BFE0020FEF728FE0020FEF725FE05
:101A5000E120FEF719FE0020FEF71FFE1520FEF71D
:101A60001CFE1720FEF719FE0720FEF716FE1120B8
:101A7000FEF713FE0620FEF710FE2B20FEF70DFEEC
:101A80005620FEF70AFE3C20FEF707FE0520FEF773
:101A900004FE1020FEF701FE0F20FEF7FEFD3F20A2
:101AA000FEF7FBFD3F20FEF7F8FD0F20FEF7F5FDEA
:101AB0002B20FEF7E9FD00200CE00000AA0000202A
:101AC0001C0100A0204C43442049443A25780D0ACB
:101AD00000000000FEF7E1FD0020FEF7DEFD012022
:101AE000FEF7DBFD3F20FEF7D8FD2A20FEF7CCFDF8
:101AF0000020FEF7D2FD0020FEF7CFFD0020FEF70C
:101B0000CCFDEF20FEF7C9FD1120FEF7BDFD7820CA
:101B100005F084F92920FEF7B7FD03F01DB9FE4852
:101B2000808846F6040188427ED11120FEF7ACFD84
:101B3000142005F073F9D020FEF7A6FD0720FEF76C
:101B4000ACFD4220FEF7A9FD1D20FEF7A6FDD12029
:101B5000FEF79AFD0020FEF7A0FD1A20FEF79DFD7E
:101B60000920FEF79AFDD220FEF78EFD0120FEF738
:101B700094FD2220FEF791FDC020FEF785FD102088
:101B8000FEF78BFD3B20FEF788FD0020FEF785FD6C
:101B90000220FEF782FD1120FEF77FFDC520FEF733
:101BA00073FD0320FEF779FDC820FEF76DFD0020D0
:101BB000FEF773FD2520FEF770FD2120FEF76DFD79
:101BC0000520FEF76AFD0020FEF767FD0A20FEF7FC
:101BD00064FD6520FEF761FD2520FEF75EFD7720A0
:101BE000FEF75BFD5020FEF758FD0F20FEF755FD78
:101BF0000020FEF752FDF820FEF746FD0120FEF71B
:101C00004CFDFE20FEF740FD0020FEF746FD0220C1
:101C1000FEF743FD2020FEF737FD3620FEF734FDAA
:101C20000820FEF73AFD00E02AE03A20FEF72CFDFE
:101C30005520FEF732FD2B20FEF726FD0020FEF793
:101C40002CFD0020FEF729FD0120FEF726FD3F2098
:101C5000FEF723FD2A20FEF717FD0020FEF71DFDED
:101C60000020FEF71AFD0120FEF717FDDF20FEF72A
:101C700014FD782005F0D2F82920FEF705FD4CE789
:101C8000A548808845F21031884240F07C87ED20DD
:101C9000FEF7FAFC0120FEF700FDFE20FEF7FDFC3A
:101CA000EE20FEF7F1FCDE20FEF7F7FC2120FEF728
:101CB000F4FCF120FEF7E8FC0120FEF7EEFCDF204B
:101CC000FEF7E2FC1020FEF7E8FCC420FEF7DCFC87
:101CD0008F20FEF7E2FCC620FEF7D6FC0020FEF7C0
:101CE000DCFCE220FEF7D9FCE220FEF7D6FCE22085
:101CF000FEF7D3FCBF20FEF7C7FCAA20FEF7CDFC01
:101D0000B020FEF7C1FC0D20FEF7C7FC0020FEF757
:101D1000C4FC0D20FEF7C1FC0020FEF7BEFC112024
:101D2000FEF7BBFC0020FEF7B8FC1920FEF7B5FC5F
:101D30000020FEF7B2FC2120FEF7AFFC0020FEF7EA
:101D4000ACFC2D20FEF7A9FC0020FEF7A6FC3D20F0
:101D5000FEF7A3FC0020FEF7A0FC5D20FEF79DFC33
:101D60000020FEF79AFC5D20FEF797FC0020FEF7AE
:101D700094FCB120FEF788FC8020FEF78EFC00204A
:101D8000FEF78BFC8B20FEF788FC0020FEF785FC1D
:101D90009620FEF782FC0020FEF77FFCB220FEF7C3
:101DA00073FC0020FEF779FC0020FEF776FC022091
:101DB000FEF773FC0020FEF770FC0320FEF76DFCBD
:101DC0000020FEF76AFCB320FEF75EFC0020FEF761
:101DD00064FC0020FEF761FC0020FEF75EFC0020A2
:101DE000FEF75BFC0020FEF758FC0020FEF755FCD8
:101DF0000020FEF752FC0020FEF74FFC0020FEF70B
:101E00004CFC0020FEF749FC0020FEF746FC0020B9
:101E1000FEF743FC0020FEF740FC0020FEF73DFCEF
:101E20000020FEF73AFC0020FEF737FC0020FEF70A
:101E300034FC0020FEF731FC0020FEF72EFC0020D1
:101E4000FEF72BFC0020FEF728FC0020FEF725FC07
:101E50000020FEF722FC0020FEF71FFCB420FEF756
:101E600013FC8B20FEF719FC0020FEF716FC9620D1
:101E7000FEF713FC0020FEF710FCA120FEF70DFC7E
:101E80000020FEF70AFCB520FEF7FEFB0220FEF75D
:101E900004FC0020FEF701FC0320FEF7FEFB0020FF
:101EA000FEF7FBFB0420FEF7F8FB0020FEF7F5FB36
:101EB000B620FEF7E9FB0020FEF7EFFB0020FEF75F
:101EC000ECFBB720FEF7E0FB0020FEF7E6FB00206E
:101ED000FEF7E3FB3F20FEF7E0FB0020FEF7DDFB13
:101EE0005E20FEF7DAFB0020FEF7D7FB6420FEF74A
:101EF000D4FB0020FEF7D1FB8C20FEF7CEFB0020A8
:101F0000FEF7CBFBAC20FEF7C8FB0020FEF7C5FBBD
:101F1000DC20FEF7C2FB01E0AA0000200020FEF753
:101F2000BCFB7020FEF7B9FB0020FEF7B6FB90204B
:101F3000FEF7B3FB0020FEF7B0FBEB20FEF7ADFB96
:101F40000020FEF7AAFBDC20FEF7A7FB0020FEF72F
:101F5000A4FBB820FEF798FB0020FEF79EFB0020B4
:101F6000FEF79BFB0020FEF798FB0020FEF795FB99
:101F70000020FEF792FB0020FEF78FFB0020FEF70B
:101F80008CFB0020FEF789FBBA20FEF77DFB2420A6
:101F9000FEF783FB0020FEF780FB0020FEF77DFBB1
:101FA0000020FEF77AFBC120FEF76EFB2020FEF733
:101FB00074FB0020FEF771FB5420FEF76EFB00203F
:101FC000FEF76BFBFF20FEF768FB0020FEF765FBCA
:101FD000C220FEF759FB0A20FEF75FFB0020FEF748
:101FE0005CFB0420FEF759FB0020FEF756FBC320E4
:101FF000FEF74AFB3C20FEF750FB0020FEF74DFBAE
:102000003A20FEF74AFB0020FEF747FB3920FEF797
:1020100044FB0020FEF741FB3720FEF73EFB00208B
:10202000FEF73BFB3C20FEF738FB0020FEF735FBBC
:102030003620FEF732FB0020FEF72FFB3220FEF7A2
:102040002CFB0020FEF729FB2F20FEF726FB0020AB
:10205000FEF723FB2C20FEF720FB0020FEF71DFBE4
:102060002920FEF71AFB0020FEF717FB2620FEF7BB
:1020700014FB0020FEF711FB2420FEF70EFB0020CE
:10208000FEF70BFB2420FEF708FB0020FEF705FB04
:102090002320FEF702FB0020FEF7FFFA3C20FEF7AC
:1020A000FCFA0020FEF7F9FA3620FEF7F6FA0020D7
:1020B000FEF7F3FA3220FEF7F0FA0020FEF7EDFA11
:1020C0002F20FEF7EAFA0020FEF7E7FA2C20FEF7B1
:1020D000E4FA0020FEF7E1FA2920FEF7DEFA0020FC
:1020E000FEF7DBFA2620FEF7D8FA0020FEF7D5FA35
:1020F0002420FEF7D2FA0020FEF7CFFA2420FEF7C4
:10210000CCFA0020FEF7C9FA2320FEF7C6FA002019
:10211000FEF7C3FAC420FEF7B7FA6220FEF7BDFA55
:102120000020FEF7BAFA0520FEF7B7FA0020FEF706
:10213000B4FA8420FEF7B1FA0020FEF7AEFAF020E0
:10214000FEF7ABFA0020FEF7A8FA1820FEF7A5FA72
:102150000020FEF7A2FAA420FEF79FFA0020FEF767
:102160009CFA1820FEF799FA0020FEF796FA502004
:10217000FEF793FA0020FEF790FA0C20FEF78DFA96
:102180000020FEF78AFA1720FEF787FA0020FEF7F4
:1021900084FA9520FEF781FA0020FEF77EFAF320FC
:1021A000FEF77BFA0020FEF778FAE620FEF775FAD4
:1021B0000020FEF772FAC520FEF766FA3220FEF71D
:1021C0006CFA0020FEF769FA4420FEF766FA002058
:1021D000FEF763FA6520FEF760FA0020FEF75DFA6D
:1021E0007620FEF75AFA0020FEF757FA8820FEF70D
:1021F00054FA0020FEF751FAC620FEF745FA2020D7
:10220000FEF74BFA0020FEF748FA1720FEF745FAD2
:102210000020FEF742FA0120FEF73FFA0020FEF709
:102220003CFAC720FEF730FA0020FEF736FA00200D
:10223000FEF733FA0020FEF730FA0020FEF72DFA01
:10224000C820FEF721FA0020FEF727FA0020FEF74B
:1022500024FA0020FEF721FA0020FEF71EFAC9201A
:10226000FEF712FA0020FEF718FA0020FEF715FA22
:102270000020FEF712FA0020FEF70FFA0020FEF70A
:102280000CFA0020FEF709FA0020FEF706FA0020FB
:10229000FEF703FA0020FEF700FA0020FEF7FDF932
:1022A0000020FEF7FAF90020FEF7F7F90020FEF70C
:1022B000F4F90020FEF7F1F90020FEF7EEF9002016
:1022C000FEF7EBF9E020FEF7DFF91620FEF7E5F95F
:1022D0000020FEF7E2F91C20FEF7DFF90020FEF7F0
:1022E000DCF92120FEF7D9F90020FEF7D6F93620D7
:1022F000FEF7D3F90020FEF7D0F94620FEF7CDF91E
:102300000020FEF7CAF95220FEF7C7F90020FEF7B9
:10231000C4F96420FEF7C1F90020FEF7BEF97A2067
:10232000FEF7BBF90020FEF7B8F98B20FEF7B5F9F0
:102330000020FEF7B2F99920FEF7AFF90020FEF772
:10234000ACF9A820FEF7A9F90020FEF7A6F9B920FC
:10235000FEF7A3F90020FEF7A0F9C420FEF79DF9CF
:102360000020FEF79AF9CA20FEF797F90020FEF741
:1023700094F9D220FEF791F90020FEF78EF9D920CA
:10238000FEF78BF90020FEF788F9E020FEF785F9CB
:102390000020FEF782F9F320FEF77FF90020FEF718
:1023A0007CF9E120FEF770F91620FEF776F900209F
:1023B000FEF773F91C20FEF770F90020FEF76DF9A7
:1023C0002220FEF76AF90020FEF767F93620FEF7B3
:1023D00064F90020FEF761F94520FEF75EF9002060
:1023E000FEF75BF95220FEF758F90020FEF755F989
:1023F0006420FEF752F90020FEF74FF97A20FEF72D
:102400004CF90020FEF749F98B20FEF746F9002031
:10241000FEF743F99920FEF740F90020FEF73DF959
:10242000A820FEF73AF90020FEF737F9B920FEF7A9
:1024300034F90020FEF731F9C420FEF72EF9002010
:10244000FEF72BF9CA20FEF728F90020FEF725F940
:10245000D220FEF722F90020FEF71FF9D820FEF760
:102460001CF90020FEF719F9E020FEF716F900200C
:10247000FEF713F9F320FEF710F90020FEF70DF92F
:10248000E220FEF701F90520FEF707F90020FEF72C
:1024900004F90B20FEF701F90020FEF7FEF81B20DF
:1024A000FEF7FBF80020FEF7F8F83420FEF7F5F809
:1024B0000020FEF7F2F84420FEF7EFF80020FEF7C8
:1024C000ECF84F20FEF7E9F80020FEF7E6F861206F
:1024D000FEF7E3F80020FEF7E0F87920FEF7DDF8DC
:1024E0000020FEF7DAF88820FEF7D7F80020FEF784
:1024F000D4F89720FEF7D1F80020FEF7CEF8A620FA
:10250000FEF7CBF80020FEF7C8F8B720FEF7C5F8B5
:102510000020FEF7C2F8C220FEF7BFF80020FEF749
:10252000BCF8C720FEF7B9F80020FEF7B6F8D120B6
:10253000FEF7B3F80020FEF7B0F8D620FEF7ADF8AE
:102540000020FEF7AAF8DD20FEF7A7F80020FEF72E
:10255000A4F8F320FEF7A1F80020FEF79EF8E32090
:10256000FEF792F80520FEF798F80020FEF795F8A0
:102570000A20FEF792F80020FEF78FF81C20FEF7E5
:102580008CF80020FEF789F83320FEF786F800204B
:10259000FEF783F84420FEF780F80020FEF77DF870
:1025A0005020FEF77AF80020FEF777F86220FEF759
:1025B00074F80020FEF771F87820FEF76EF800201E
:1025C000FEF76BF88820FEF768F80020FEF765F844
:1025D0009720FEF762F80020FEF75FF8A620FEF7CE
:1025E0005CF80020FEF759F8B720FEF756F80020F7
:1025F000FEF753F8C220FEF750F80020FEF74DF822
:10260000C720FEF74AF80020FEF747F8D120FEF772
:1026100044F80020FEF741F8D520FEF73EF80020F0
:10262000FEF73BF8DD20FEF738F80020FEF735F81E
:10263000F320FEF732F80020FEF72FF8E420FEF733
:1026400023F80120FEF729F80020FEF726F80120E4
:10265000FEF723F80020FEF720F80220FEF71DF811
:102660000020FEF71AF82A20FEF717F80020FEF7E0
:1026700014F83C20FEF711F80020FEF70EF84B206E
:10268000FEF70BF80020FEF708F85D20FEF705F8CE
:102690000020FEF702F87420FDF7FFFF0020FDF791
:1026A000FCFF8420FDF7F9FF0020FDF7F6FF9320E3
:1026B000FDF7F3FF0020FDF7F0FFA220FDF7EDFF8F
:1026C0000020FDF7EAFFB320FDF7E7FF0020FDF74C
:1026D000E4FFBE20FDF7E1FF0020FDF7DEFFC42090
:1026E000FDF7DBFF0020FDF7D8FFCD20FDF7D5FF7C
:1026F0000020FDF7D2FFD320FDF7CFFF0020FDF72C
:10270000CCFFDD20FDF7C9FF0020FDF7C6FFF32059
:10271000FDF7C3FF0020FDF7C0FFE520FDF7B4FF84
:102720000020FDF7BAFF0020FDF7B7FF0020FDF7FE
:10273000B4FF0020FDF7B1FF0220FDF7AEFF00203F
:10274000FDF7ABFF2920FDF7A8FF0020FDF7A5FF4F
:102750003C20FDF7A2FF0020FDF79FFF4B20FDF777
:102760009CFF0020FDF799FF5D20FDF796FF0020FC
:10277000FDF793FF7420FDF790FF0020FDF78DFF1C
:102780008420FDF78AFF0020FDF787FF9320FDF7E7
:1027900084FF0020FDF781FFA220FDF77EFF0020CF
:1027A000FDF77BFFB320FDF778FF0020FDF775FFF5
:1027B000BE20FDF772FF0020FDF76FFFC420FDF77C
:1027C0006CFF0020FDF769FFCD20FDF766FF0020BC
:1027D000FDF763FFD320FDF760FF0020FDF75DFFED
:1027E000DC20FDF75AFF0020FDF757FFF320FDF72F
:1027F00054FF0020FDF751FFE620FDF745FF1120B3
:10280000FDF74BFF0020FDF748FF3420FDF745FFA3
:102810000020FDF742FF5620FDF73FFF0020FDF7A7
:102820003CFF7620FDF739FF0020FDF736FF7720CB
:10283000FDF733FF0020FDF730FF6620FDF72DFF89
:102840000020FDF72AFF8820FDF727FF0020FDF775
:1028500024FF9920FDF721FF0020FDF71EFFBB207C
:10286000FDF71BFF0020FDF718FF9920FDF715FF6E
:102870000020FDF712FF6620FDF70FFF0020FDF797
:102880000CFF5520FDF709FF0020FDF706FF55203E
:10289000FDF703FF0020FDF700FF4520FDF7FDFEDB
:1028A0000020FDF7FAFE4320FDF7F7FE0020FDF7BC
:1028B000F4FE4420FDF7F1FE0020FDF7EEFEE720D8
:1028C000FDF7E2FE3220FDF7E8FE0020FDF7E5FE11
:1028D0005520FDF7E2FE0020FDF7DFFE7620FDF734
:1028E000DCFE0020FDF7D9FE6620FDF7D6FE0020B5
:1028F000FDF7D3FE6720FDF7D0FE0020FDF7CDFEEB
:102900006720FDF7CAFE0020FDF7C7FE8720FDF710
:10291000C4FE0020FDF7C1FE9920FDF7BEFE002099
:10292000FDF7BBFEBB20FDF7B8FE0020FDF7B5FEAE
:102930009920FDF7B2FE0020FDF7AFFE7720FDF7EE
:10294000ACFE0020FDF7A9FE4420FDF7A6FE002006
:10295000FDF7A3FE5620FDF7A0FE0020FDF79DFE2B
:102960002320FDF79AFE0020FDF797FE3320FDF7A8
:1029700094FE0020FDF791FE4520FDF78EFE00201D
:10298000FDF78BFEE820FDF77FFE0020FDF785FEBA
:102990000020FDF782FE9920FDF77FFE0020FDF765
:1029A0007CFE8720FDF779FE0020FDF776FE88206B
:1029B000FDF773FE0020FDF770FE7720FDF76DFE3A
:1029C0000020FDF76AFE6620FDF767FE0020FDF798
:1029D00064FE8820FDF761FE0020FDF75EFEAA2060
:1029E000FDF75BFE0020FDF758FEBB20FDF755FE0E
:1029F0000020FDF752FE9920FDF74FFE0020FDF765
:102A00004CFE6620FDF749FE0020FDF746FE5520EE
:102A1000FDF743FE0020FDF740FE5520FDF73DFE8B
:102A20000020FDF73AFE4420FDF737FE0020FDF7B9
:102A300034FE4420FDF731FE0020FDF72EFE552028
:102A4000FDF72BFE0020FDF728FEE920FDF71CFE18
:102A5000AA20FDF722FE0020FDF71FFE0020FDF753
:102A60001CFE0020FDF719FE0020FDF70DFEAA2038
:102A7000FDF713FECF20FDF707FE0020FDF70DFE4A
:102A80000020FDF70AFE0020FDF707FE0020FDF7FD
:102A900004FE0020FDF701FE0020FDF7FEFD0020F2
:102AA000FDF7FBFD0020FDF7F8FD0020FDF7F5FD2B
:102AB0000020FDF7F2FD0020FDF7EFFD0020FDF7FF
:102AC000ECFD0020FDF7E9FD0020FDF7E6FD00200C
:102AD000FDF7E3FD0020FDF7E0FD0020FDF7DDFD43
:102AE000F020FDF7D1FD0020FDF7D7FD5020FDF7C8
:102AF000D4FD0020FDF7D1FD0020FDF7CEFD002024
:102B0000FDF7CBFDF320FDF7BFFD0020FDF7C5FD70
:102B1000F920FDF7B9FD0620FDF7BFFD1020FDF7F8
:102B2000BCFD2920FDF7B9FD0020FDF7B6FD3A20D8
:102B3000FDF7AAFD5520FDF7B0FD1120FDF7A4FD1E
:102B4000642004F06BF92920FDF79EFD3520FDF788
:102B50009BFD0020FDF7A1FD5120FDF795FDFF2015
:102B6000FDF79BFD5320FDF78FFD2C20FDF795FD14
:102B70005520FDF789FD8220FDF78FFD2C20FDF704
:102B800083FD02F0E9B8FE48808845F21051884282
:102B90007ED155214FF47040FDF791FDAA214FF2EF
:102BA0000100FDF78CFD52214FF20200FDF787FD79
:102BB00008214FF20300FDF782FD01214FF20400CE
:102BC000FDF77DFD0D214FF43040FDF778FD0D211F
:102BD0004BF20100FDF773FD0D214BF20200FDF7F2
:102BE0006EFD34214FF43640FDF769FD34214BF280
:102BF0000160FDF764FD34214BF20260FDF75FFDDB
:102C00000D214FF43140FDF75AFD0D214BF201101B
:102C1000FDF755FD0D214BF20210FDF750FD34215B
:102C20004FF43740FDF74BFD34214BF20170FDF7B7
:102C300046FD34214BF20270FDF741FD00214FF4B7
:102C40003240FDF73CFD00214BF20120FDF737FD3E
:102C500000214BF20220FDF732FD24214FF43840D1
:102C6000FDF72DFD24214BF60100FDF728FD242161
:102C70004BF60200FDF723FD01214FF43F40FDF725
:102C80001EFD0F214FF43340FDF719FD0F2100E029
:102C9000FEE34BF20130FDF712FD0F214BF2023043
:102CA000FDF70DFD34214FF43940FDF708FD3421C7
:102CB0004BF60110FDF703FD34214BF60210FDF732
:102CC000FEFC08214FF43540FDF7F9FC08214BF2DA
:102CD0000150FDF7F4FC08214BF20250FDF7EFFC28
:102CE00003214FF44240FDF7EAFC24214FF43A401F
:102CF000FDF7E5FC24214BF60120FDF7E0FC242143
:102D00004BF60220FDF7DBFC00214FF43C40FDF7C1
:102D1000D6FC78214BF60140FDF7D1FC00214BF6A3
:102D20000240FDF7CCFC00214FF43D40FDF7C7FC0D
:102D300078214BF60150FDF7C2FC00214BF6025002
:102D4000FDF7BDFC00214FF43E40FDF7B8FC6421C7
:102D50004BF60160FDF7B3FC00214FF45140FDF745
:102D6000AEFC33214DF20110FDF7A9FC00214DF21C
:102D70000210FDF7A4FC34214DF20310FDF79FFC77
:102D800000214DF20410FDF79AFC3A214DF2051096
:102D9000FDF795FC00214DF20610FDF790FC4A214D
:102DA0004DF20710FDF78BFC00214DF20810FDF7E6
:102DB00086FC5C214DF20910FDF781FC00214DF2EB
:102DC0000A10FDF77CFC81214DF20B10FDF777FC1A
:102DD00000214DF20C10FDF772FCA6214DF20D10F2
:102DE000FDF76DFC00214DF20E10FDF768FCE521AA
:102DF0004DF20F10FDF763FC01214DF21010FDF7AD
:102E00005EFC13214DF21110FDF759FC01214DF22A
:102E10001210FDF754FC54214DF21310FDF74FFC36
:102E200001214DF21410FDF74AFC82214DF21510DC
:102E3000FDF745FC01214DF21610FDF740FCCA21BB
:102E40004DF21710FDF73BFC02214DF21810FDF773
:102E500036FC00214DF21910FDF731FC02214DF234
:102E60001A10FDF72CFC01214DF21B10FDF727FC79
:102E700002214DF21C10FDF722FC34214DF21D10F1
:102E8000FDF71DFC02214DF21E10FDF718FC672115
:102E90004DF21F10FDF713FC02214DF22010FDF73B
:102EA0000EFC84214DF22110FDF709FC02214DF2A8
:102EB0002210FDF704FCA4214DF22310FDF7FFFBC7
:102EC00002214DF22410FDF7FAFBB7214DF2251037
:102ED000FDF7F5FB02214DF22610FDF7F0FBCF21A7
:102EE0004DF22710FDF7EBFB02214DF22810FDF704
:102EF000E6FBDE214DF22910FDF7E1FB02214DF248
:102F00002A10FDF7DCFBF2214DF22B10FDF7D7FB69
:102F100002214DF22C10FDF7D2FBFE214DF22D10B7
:102F2000FDF7CDFB03214DF22E10FDF7C8FB10215C
:102F30004DF22F10FDF7C3FB03214DF23010FDF7CA
:102F4000BEFB33214DF23110FDF7B9FB03214DF2E9
:102F50003210FDF7B4FB6D214DF23310FDF7AFFBDE
:102F600000214FF45240FDF7AAFB33214DF201201E
:102F7000FDF7A5FB00214DF20220FDF7A0FB01E0CB
:102F8000AA00002034214DF20320FDF798FB002118
:102F90004DF20420FDF793FB3A214DF20520FDF799
:102FA0008EFB00214DF20620FDF789FB4A214DF2F0
:102FB0000720FDF784FB00214DF20820FDF77FFB81
:102FC0005C214DF20920FDF77AFB00214DF20A2029
:102FD000FDF775FB81214DF20B20FDF770FB002101
:102FE0004DF20C20FDF76BFBA6214DF20D20FDF7F5
:102FF00066FB00214DF20E20FDF761FBE5214DF24D
:103000000F20FDF75CFB01214DF21020FDF757FB6F
:1030100013214DF21120FDF752FB01214DF2122038
:10302000FDF74DFB54214DF21320FDF748FB012124
:103030004DF21420FDF743FB82214DF21520FDF7E0
:103040003EFB01214DF21620FDF739FBCA214DF25E
:103050001720FDF734FB02214DF21820FDF72FFB5E
:1030600000214DF21920FDF72AFB02214DF21A2012
:10307000FDF725FB01214DF21B20FDF720FB02216E
:103080004DF21C20FDF71BFB34214DF21D20FDF7F6
:1030900016FB02214DF21E20FDF711FB67214DF2B8
:1030A0001F20FDF70CFB02214DF22020FDF707FB4E
:1030B00084214DF22120FDF702FB02214DF2222056
:1030C000FDF7FDFAA4214DF22320FDF7F8FA0221C5
:1030D0004DF22420FDF7F3FAB7214DF22520FDF73C
:1030E000EEFA02214DF22620FDF7E9FACF214DF24A
:1030F0002720FDF7E4FA02214DF22820FDF7DFFA40
:10310000DE214DF22920FDF7DAFA02214DF22A20C4
:10311000FDF7D5FAF2214DF22B20FDF7D0FA02216E
:103120004DF22C20FDF7CBFAFE214DF22D20FDF7BC
:10313000C6FA03214DF22E20FDF7C1FA10214DF2FF
:103140002F20FDF7BCFA03214DF23020FDF7B7FA2E
:1031500033214DF23120FDF7B2FA03214DF2322036
:10316000FDF7ADFA6D214DF23320FDF7A8FA0021ED
:103170004FF45340FDF7A3FA33214DF20130FDF730
:103180009EFA00214DF20230FDF799FA34214DF2FA
:103190000330FDF794FA00214DF20430FDF78FFA69
:1031A0003A214DF20530FDF78AFA00214DF2063042
:1031B000FDF785FA4A214DF20730FDF780FA00212C
:1031C0004DF20830FDF77BFA5C214DF20930FDF736
:1031D00076FA00214DF20A30FDF771FA81214DF2A5
:1031E0000B30FDF76CFA00214DF20C30FDF767FA59
:1031F000A6214DF20D30FDF762FA00214DF20E309E
:10320000FDF75DFAE5214DF20F30FDF758FA012187
:103210004DF21030FDF753FA13214DF21130FDF746
:103220004EFA01214DF21230FDF749FA54214DF2C8
:103230001330FDF744FA01214DF21430FDF73FFA47
:1032400082214DF21530FDF73AFA01214DF2163088
:10325000FDF735FACA214DF21730FDF730FA022199
:103260004DF21830FDF72BFA00214DF21930FDF721
:1032700026FA02214DF21A30FDF721FA01214DF212
:103280001B30FDF71CFA02214DF21C30FDF717FA36
:1032900034214DF21D30FDF712FA02214DF21E309D
:1032A000FDF70DFA67214DF21F30FDF708FA0221F4
:1032B0004DF22030FDF703FA84214DF22130FDF765
:1032C000FEF902214DF22230FDF7F9F9A4214DF269
:1032D0002330FDF7F4F902214DF22430FDF7EFF928
:1032E000B7214DF22530FDF7EAF902214DF22630E3
:1032F000FDF7E5F9CF214DF22730FDF7E0F9022186
:103300004DF22830FDF7DBF9DE214DF22930FDF7D3
:10331000D6F902214DF22A30FDF7D1F9F2214DF212
:103320002B30FDF7CCF902214DF22C30FDF7C7F917
:10333000FE214DF22D30FDF7C2F903214DF22E3062
:10334000FDF7BDF910214DF22F30FDF7B8F903213B
:103350004DF23030FDF7B3F933214DF23130FDF746
:10336000AEF903214DF23230FDF7A9F96D214DF28E
:103370003330FDF7A4F900214FF45440FDF79FF9D5
:1033800033214DF20140FDF79AF900214DF2024040
:10339000FDF795F934214DF20340FDF790F9002136
:1033A0004DF20440FDF78BF93A214DF20540FDF74F
:1033B00086F900214DF20640FDF781F94A214DF2D0
:1033C0000740FDF77CF900214DF20840FDF777F941
:1033D0005C214DF20940FDF772F900214DF20A40DF
:1033E000FDF76DF981214DF20B40FDF768F90021E1
:1033F0004DF20C40FDF763F9A6214DF20D40FDF7AB
:103400005EF900214DF20E40FDF759F9E5214DF22C
:103410000F40FDF754F901214DF21040FDF74FF92F
:1034200013214DF21140FDF74AF901214DF21240EE
:10343000FDF745F954214DF21340FDF740F9012104
:103440004DF21440FDF73BF982214DF21540FDF796
:1034500036F901214DF21640FDF731F9CA214DF23E
:103460001740FDF72CF902214DF21840FDF727F91E
:1034700000214DF21940FDF722F902214DF21A40C8
:10348000FDF71DF901214DF21B40FDF718F900E091
:1034900004E302214DF21C40FDF711F934214DF2F5
:1034A0001D40FDF70CF902214DF21E40FDF707F912
:1034B00067214DF21F40FDF702F902214DF2204035
:1034C000FDF7FDF884214DF22140FDF7F8F80221C7
:1034D0004DF22240FDF7F3F8A4214DF22340FDF711
:1034E000EEF802214DF22440FDF7E9F8B7214DF244
:1034F0002540FDF7E4F802214DF22640FDF7DFF804
:10350000CF214DF22740FDF7DAF802214DF2284095
:10351000FDF7D5F8DE214DF22940FDF7D0F8022164
:103520004DF22A40FDF7CBF8F2214DF22B40FDF78A
:10353000C6F802214DF22C40FDF7C1F8FE214DF2F4
:103540002D40FDF7BCF803214DF22E40FDF7B7F8F2
:1035500010214DF22F40FDF7B2F803214DF230401B
:10356000FDF7ADF833214DF23140FDF7A8F8032106
:103570004DF23240FDF7A3F86D214DF23340FDF7D7
:103580009EF800214FF45540FDF799F833214DF294
:103590000150FDF794F800214DF20250FDF78FF82D
:1035A00034214DF20350FDF78AF800214DF204500A
:1035B000FDF785F83A214DF20550FDF780F800211E
:1035C0004DF20650FDF77BF84A214DF20750FDF70A
:1035D00076F800214DF20850FDF771F85C214DF2AC
:1035E0000950FDF76CF800214DF20A50FDF767F81D
:1035F00081214DF20B50FDF762F800214DF20C5085
:10360000FDF75DF8A6214DF20D50FDF758F80021A9
:103610004DF20E50FDF753F8E5214DF20F50FDF736
:103620004EF801214DF21050FDF749F813214DF2EB
:103630001150FDF744F801214DF21250FDF73FF80B
:1036400054214DF21350FDF73AF801214DF2145078
:10365000FDF735F882214DF21550FDF730F80121C4
:103660004DF21650FDF72BF8CA214DF21750FDF719
:1036700026F802214DF21850FDF721F800214DF2F5
:103680001950FDF71CF802214DF21A50FDF717F8FA
:1036900001214DF21B50FDF712F802214DF21C5092
:1036A000FDF70DF834214DF21D50FDF708F8022109
:1036B0004DF21E50FDF703F867214DF21F50FCF745
:1036C000FEFF02214DF22050FCF7F9FF84214DF25C
:1036D0002150FCF7F4FF02214DF22250FCF7EFFFDE
:1036E000A4214DF22350FCF7EAFF02214DF22450B1
:1036F000FCF7E5FFB7214DF22550FCF7E0FF022172
:103700004DF22650FCF7DBFFCF214DF22750FCF79E
:10371000D6FF02214DF22850FCF7D1FFDE214DF2F9
:103720002950FCF7CCFF02214DF22A50FCF7C7FFCD
:10373000F2214DF22B50FCF7C2FF02214DF22C502A
:10374000FCF7BDFFFE214DF22D50FCF7B8FF032121
:103750004DF22E50FCF7B3FF10214DF22F50FCF725
:10376000AEFF03214DF23050FCF7A9FF33214DF29B
:103770003150FCF7A4FF03214DF23250FCF79FFFBC
:103780006D214DF23350FCF79AFF00214FF4564063
:10379000FCF795FF33214DF20160FCF790FF00210B
:1037A0004DF20260FCF78BFF34214DF20360FCF711
:1037B00086FF00214DF20460FCF781FF3A214DF2B3
:1037C0000560FCF77CFF00214DF20660FCF777FFF7
:1037D0004A214DF20760FCF772FF00214DF20860AC
:1037E000FCF76DFF5C214DF20960FCF768FF0021DA
:1037F0004DF20A60FCF763FF81214DF20B60FCF78C
:103800005EFF00214DF20C60FCF759FFA6214DF23E
:103810000D60FCF754FF00214DF20E60FCF74FFFE6
:10382000E5214DF20F60FCF74AFF01214DF21060D7
:10383000FCF745FF13214DF21160FCF740FF012119
:103840004DF21260FCF73BFF54214DF21360FCF780
:1038500036FF01214DF21460FCF731FF82214DF259
:103860001560FCF72CFF01214DF21660FCF727FFD5
:10387000CA214DF21760FCF722FF02214DF21860B9
:10388000FCF71DFF00214DF21960FCF718FF022123
:103890004DF21A60FCF713FF01214DF21B60FCF79B
:1038A0000EFF02214DF21C60FCF709FF34214DF29E
:1038B0001D60FCF704FF02214DF21E60FCF7FFFEC5
:1038C00067214DF21F60FCF7FAFE02214DF22060E5
:1038D000FCF7F5FE84214DF22160FCF7F0FE022199
:1038E0004DF22260FCF7EBFEA4214DF22360FCF7C1
:1038F000E6FE02214DF22460FCF7E1FEB7214DF215
:103900002560FCF7DCFE02214DF22660FCF7D7FEB5
:10391000CF214DF22760FCF7D2FE02214DF2286044
:10392000FCF7CDFEDE214DF22960FCF7C8FE022136
:103930004DF22A60FCF7C3FEF2214DF22B60FCF73A
:10394000BEFE02214DF22C60FCF7B9FEFE214DF2C5
:103950002D60FCF7B4FE03214DF22E60FCF7AFFEA4
:1039600010214DF22F60FCF7AAFE03214DF23060CA
:10397000FCF7A5FE33214DF23160FCF7A0FE0321D8
:103980004DF23260FCF79BFE6D214DF23360FCF787
:1039900096FE55214FF47040FCF791FEAA214FF29C
:1039A0000100FCF78CFE52214FF20200FCF787FE6B
:1039B00008214FF20300FCF782FE00214FF20400C1
:1039C000FCF77DFECC214FF43140FCF778FE00215E
:1039D0004BF20110FCF773FE05214FF43640FCF763
:1039E0006EFE70214FF43740FCF769FE70214BF2F8
:1039F0000170FCF764FE01214FF43840FCF75FFED4
:103A000003214BF60100FCF75AFE03214BF602009E
:103A1000FCF755FE03214BF60300FCF750FE022194
:103A20004FF43C40FCF74BFE00214BF60140FCF705
:103A300046FE00214BF60240FCF741FED0214FF438
:103A40004940FCF73CFE02214CF60110FCF737FE22
:103A500050214CF60210FCF732FE50214CF60310B8
:103A6000FCF72DFE50214CF60410FCF728FE002137
:103A70004FF45450FCF723FE55214FF46850FCF7E7
:103A80001EFE4FF48850FCF7FFFD782003F07EF90E
:103A90004FF42450FCF7F8FD01F05EB9FE48808831
:103AA00049F2253188427DD147F6F001E520FCF747
:103AB00006FE4FF480710120FCF701FE4FF4E06137
:103AC0000220FCF7FCFD41F230010320FCF7F7FD7A
:103AD00000210420FCF7F3FD40F202210820FCF74E
:103AE000EEFD00210920FCF7EAFD00210A20FCF789
:103AF000E6FD00210C20FCF7E2FD00210D20FCF783
:103B0000DEFD00210F20FCF7DAFD00211020FCF77C
:103B1000D6FD07211120FCF7D2FD00211220FCF771
:103B2000CEFD00211320FCF7CAFD00210720FCF781
:103B3000C6FD41F290611020FCF7C1FD40F2272143
:103B40001120FCF7BCFD9D211220FCF7B8FD4FF4BD
:103B5000C8511320FCF7B3FD25212920FCF7AFFD48
:103B60000D212B20FCF7ABFD07213020FCF7A7FD32
:103B700040F203313120FCF7A2FD03213220FCF793
:103B80009EFD40F206213520FCF799FD08213620E4
:103B9000FCF795FD40F206413720FCF790FD4FF40D
:103BA000417100E058E03820FCF789FD07213920F9
:103BB000FCF785FD40F202613C20FCF780FD082106
:103BC0003D20FCF77CFD00215020FCF778FDEF2123
:103BD0005120FCF774FD00215220FCF770FD40F2EB
:103BE0003F115320FCF76BFD4FF427416020FCF799
:103BF00066FD01216120FCF762FD00216A20FCF7CF
:103C00005EFD00218020FCF75AFD00218120FCF799
:103C100056FD00218220FCF752FD00218320FCF795
:103C20004EFD00218420FCF74AFD00218520FCF791
:103C300046FD10219020FCF742FD4FF4C061922018
:103C4000FCF73DFD40F233110720FCF738FD22213F
:103C50000020FCF734FD1FE78F48808849F22831A7
:103C600088427DD141F28F01EC20FCF728FD41F222
:103C70003421EF20FCF723FD4FF480710120FCF785
:103C80001EFD4FF4E0610220FCF719FD41F2300106
:103C90000320FCF714FD00210420FCF710FD40F286
:103CA00002210820FCF70BFD00210920FCF707FD8D
:103CB00000210A20FCF703FD01210C20FCF7FFFC8A
:103CC00000210D20FCF7FBFC00210F20FCF7F7FC86
:103CD00000211020FCF7F3FC07211120FCF7EFFC7A
:103CE00000211220FCF7EBFC00211320FCF7E7FC7D
:103CF00001210720FCF7E3FC322003F08FF841F2AA
:103D000090411020FCF7DBFC40F227211120FCF74A
:103D1000D6FC322003F082F88A211220FCF7CFFC77
:103D2000322003F07BF84FF4D0511320FCF7C7FC8E
:103D300006212920FCF7C3FC0D212B20FCF7BFFC3A
:103D4000322003F06BF800212020FCF7B8FC0021A2
:103D50002120FCF7B4FC322003F060F8002100E0E1
:103D600075E03020FCF7ABFC40F204613120FCF739
:103D7000A6FC40F205313220FCF7A1FC00213520E1
:103D8000FCF79DFC40F609413620FCF798FC4FF407
:103D900001713720FCF793FC40F201313820FCF729
:103DA0008EFC40F207713920FCF789FC00213C2091
:103DB000FCF785FC40F60A213D20FCF780FC322010
:103DC00003F02CF800215020FCF779FCEF21512062
:103DD000FCF775FC00215220FCF771FC40F23F110A
:103DE0005320FCF76CFC4FF427416020FCF767FC84
:103DF00001216120FCF763FC00216A20FCF75FFCD5
:103E000000218020FCF75BFC00218120FCF757FC9F
:103E100000218220FCF753FC00218320FCF74FFC9B
:103E200000218420FCF74BFC00218520FCF747FC97
:103E300010219020FCF743FC4FF4C0619220FCF766
:103E40003EFC40F233110720FCF739FC24E612480F
:103E5000808849F2203188427ED100210846FCF753
:103E60002EFC4FF480710120FCF729FC4FF4E06137
:103E70000220FCF724FC41F230010320FCF71FFC78
:103E800000210420FCF71BFC40F202210820FCF773
:103E900016FC0021092001E0AA000020FCF70FFC1D
:103EA00000210A20FCF70BFC01210C20FCF707FC89
:103EB00000210D20FCF703FC00210F20FCF7FFFB85
:103EC000322002F0ABFF40F201110720FCF7F7FBB4
:103ED000322002F0A3FF4FF486511020FCF7EFFBD5
:103EE00007211120FCF7EBFB4FF488711220FCF73F
:103EF000E6FB4FF430611320FCF7E1FB00212920A1
:103F0000FCF7DDFB44F210012B20FCF7D8FB00216D
:103F10005020FCF7D4FBEF215120FCF7D0FB00210F
:103F20005220FCF7CCFB40F23F115320FCF7C7FBBB
:103F30004FF41C516020FCF7C2FB01216120FCF70B
:103F4000BEFB00216A20FCF7BAFB00218020FCF7B1
:103F5000B6FB0021812000E030E0FCF7B0FB00213F
:103F60008220FCF7ACFB00218320FCF7A8FB00219A
:103F70008420FCF7A4FB00218520FCF7A0FB102186
:103F80009020FCF79CFB00219220FCF798FB01217C
:103F90009320FCF794FB4FF488719520FCF78FFB7E
:103FA00000219720FCF78BFB00219820FCF787FB72
:103FB00040F273110720FCF782FB6DE5FE48808814
:103FC00049F2313188427DD141F21401E720FCF7FA
:103FD00076FB4FF480710120FCF771FB4FF4007108
:103FE0000220FCF76CFB41F238010320FCF767FB71
:103FF00040F202210820FCF762FB00210920FCF7B7
:104000005EFB00210A20FCF75AFB00210C20FCF784
:1040100056FB00210D20FCF752FB00210F20FCF77E
:104020004EFB00211020FCF74AFB07211120FCF772
:1040300046FB00211220FCF742FB00211320FCF775
:104040003EFBC82002F0EAFE41F290611020FCF72E
:1040500036FB40F227211120FCF731FB322002F021
:10406000DDFE0C211220FCF72AFB322002F0D6FEE6
:104070004FF400611320FCF722FB11212920FCF7EB
:104080001EFB0B212B20FCF71AFB322002F0C6FE90
:1040900000212020FCF713FB40F23F112120FCF708
:1040A0000EFB00213020FCF70AFB4FF48371312016
:1040B000FCF705FB00213220FCF701FB4FF40171F6
:1040C000352000E064E0FCF7FAFA41F20A6136209C
:1040D000FCF7F5FA40F207713720FCF7F0FA4FF4DD
:1040E00083713820FCF7EBFA40F207713920FCF7B6
:1040F000E6FA40F202413C20FCF7E1FA40F60F41BB
:104100003D20FCF7DCFA00215020FCF7D8FAEF2123
:104110005120FCF7D4FA00215220FCF7D0FA40F2EB
:104120003F115320FCF7CBFA4FF41C516020FCF7F1
:10413000C6FA01216120FCF7C2FA00216A20FCF7CF
:10414000BEFA00218020FCF7BAFA00218120FCF79A
:10415000B6FA00218220FCF7B2FA00218320FCF796
:10416000AEFA00218420FCF7AAFA00218520FCF792
:10417000A6FA10219020FCF7A2FA4FF4C061922019
:10418000FCF79DFA40F233110720FCF798FA83E41C
:104190008948808845F2084188427DD14FF480717A
:1041A0000120FCF78CFA4FF4E0610220FCF787FA5B
:1041B00041F230010320FCF782FA00210420FCF7D1
:1041C0007EFA40F207210820FCF779FA0021092045
:1041D000FCF775FA00210A20FCF771FA00210C2087
:1041E000FCF76DFA00210D20FCF769FA00210F2081
:1041F000FCF765FA142002F011FE41F2B0611020C4
:10420000FCF75DFA01211120FCF759FA0121172072
:10421000FCF755FA4FF49C711220FCF750FA4FF45A
:1042200000611320FCF74BFA09212920FCF747FA1B
:1042300009212A20FCF743FA0021A420FCF73FFAC9
:1042400000215020FCF73BFAEF215120FCF737FA10
:1042500000215220FCF733FA40F23F115320FCF7C3
:104260002EFA4FF41C516020FCF729FA012161203D
:10427000FCF725FA00216A20FCF721FA00218020B2
:10428000FCF71DFA00218120FCF719FA0021822099
:10429000FCF715FA002100E024E08320FCF70FFA78
:1042A00000218420FCF70BFA00218520FCF707FA97
:1042B00013219020FCF703FA00219220FCF7FFF96C
:1042C00003219320FCF7FBF94FF488719520FCF74C
:1042D000F6F940F273110720FCF7F1F9322002F0F1
:1042E0009DFDB8E43448808841F2055188427DD173
:1042F00000210720FCF7E3F9322002F08FFD4FF494
:104300008E711220FCF7DBF90121A420FCF7D7F90C
:104310000F210820FCF7D3F908210A20FCF7CFF978
:1043200008210D20FCF7CBF940F207713020FCF793
:10433000C6F907213120FCF7C2F940F203613220AF
:10434000FCF7BDF94FF4E0613320FCF7B8F940F217
:1043500002213420FCF7B3F902213520FCF7AFF934
:1043600041F60F713620FCF7AAF940F207713720A9
:10437000FCF7A5F900213820FCF7A1F9002139202C
:10438000FCF79DF940F207713A20FCF798F90021FB
:104390003B20FCF794F907213C20FCF790F9002121
:1043A0003D20FCF78CF9322002F038FD0121072076
:1043B000FCF785F9012101E0AA0000201720FCF795
:1043C0007EF9322002F02AFD4FF4BD511020FCF797
:1043D00076F940F217211120FCF771F94FF48F7133
:1043E0001220FCF76CF94FF4706100E098E01320A4
:1043F000FCF765F900212A20FCF761F90A21292040
:10440000FCF75DF94FF49F711220FCF758F9002179
:104410005020FCF754F9EF215120FCF750F900210E
:104420005220FCF74CF940F23F115320FCF747F9BA
:104430004FF41C516020FCF742F901216120FCF788
:104440003EF900216A20FCF73AF900218020FCF7B0
:1044500036F900218120FCF732F900218220FCF797
:104460002EF900218320FCF72AF900218420FCF793
:1044700026F900218520FCF722F913219020FCF772
:104480001EF94FF440719220FCF719F90521932091
:10449000FCF715F900219520FCF711F90021972070
:1044A000FCF70DF900219820FCF709F94FF4807111
:1044B0000120FCF704F94FF4E0610220FCF7FFF85B
:1044C00041F238010320FCF7FAF800210420FCF740
:1044D000F6F800210C20FCF7F2F800210F20FCF781
:1044E000EEF800212020FCF7EAF800212120FCF75B
:1044F000E6F821210720FCF7E2F8142002F08EFCF8
:1045000061210720FCF7DBF8142002F087FC40F261
:1045100073110720FCF7D3F8142002F07FFC95E418
:10452000FE4880884BF2055188427CD10021084624
:10453000FCF7C5F800210846FCF7C1F80021084641
:10454000FCF7BDF800210846FCF7B9F80121A420CA
:10455000FCF7B5F8142002F061FC4FF41C51602008
:10456000FCF7ADF840F202210820FCF7A8F84FF460
:1045700005713020FCF7A3F843F215713120FCF7E8
:104580009EF840F204613220FCF799F840F616617B
:104590003320FCF794F842F211213420FCF78FF815
:1045A0004FF4A8513520FCF78AF848F2075136201D
:1045B000FCF785F841F207413720FCF780F841F21B
:1045C00003413820FCF77BF820213920FCF777F8ED
:1045D0001A219020FCF773F800211020FCF76FF8E7
:1045E00007211120FCF76BF800211220FCF767F877
:1045F00000211320FCF763F8142002F00FFC4FF4A5
:10460000E6611020FCF75BF840F237111120FCF74F
:1046100056F8142002F002FC4FF4DC711220FCF773
:104620004EF8142000E085E002F0F8FB4FF47061D2
:104630001320FCF744F880212A20FCF740F8482199
:104640002920FCF73CF8142002F0E8FB4FF48071BD
:104650000120FCF734F84FF4E0610220FCF72FF85A
:1046600041F238010320FCF72AF840F20221082029
:10467000FCF725F800210A20FCF721F800210C2086
:10468000FCF71DF800210D20FCF719F830210E2051
:10469000FCF715F800215020FCF711F8EF2151200C
:1046A000FCF70DF800215220FCF709F840F23F1109
:1046B0005320FCF704F84FF41C516020FBF7FFFF78
:1046C00001216120FBF7FBFF00216A20FBF7F7FFC8
:1046D00011219020FBF7F3FF4FF4C0619220FBF70C
:1046E000EEFF40F202419320FBF7E9FF0221942004
:1046F000FBF7E5FF142002F091FB01210720FBF7F7
:10470000DEFF142002F08AFB61210720FBF7D7FFB0
:1047100040F273110720FBF7D2FF00212020FBF7A6
:10472000CEFF00212120FBF7CAFF22210020FBF74A
:10473000C6FF11E3794880884CF2055188427CD14C
:1047400000210846FBF7BBFF00210846FBF7B7FF37
:10475000142002F063FB00210846FBF7B0FF0021A4
:104760000846FBF7ACFF00210846FBF7A8FF002135
:104770000846FBF7A4FF0121A420FBF7A0FF1420AB
:1047800002F04CFB4FF41C516020FBF798FF40F601
:1047900006010820FBF793FF40F203713020FBF77E
:1047A0008EFF01213120FBF78AFF04213220FBF725
:1047B00086FF4FF481713320FBF781FF4FF4407186
:1047C0003420FBF77CFF40F203113520FBF777FF25
:1047D0001F213620FBF773FF40F203713720FBF7F0
:1047E0006EFF01213820FBF76AFF04213920FBF717
:1047F00066FF15219020FBF762FF4FF482611020C5
:10480000FBF75DFF40F247211120FBF758FF4FF403
:10481000DE711220FBF753FF4FF460611320FBF7AA
:104820004EFF782002F0FAFA4FF480710120FBF776
:1048300046FF4FF40071022000E052E0FBF73FFF1B
:1048400041F230010320FBF73AFF08210A20FBF771
:1048500036FF00210C20FBF732FF20210E20FBF752
:104860002EFF00210F20FBF72AFF00212020FBF75D
:1048700026FF00212120FBF722FF3D212A20FBF704
:104880001EFF142002F0CAFA2D212920FBF717FF82
:1048900000215020FBF713FF4DF2EF015120FBF7F1
:1048A0000EFF00215220FBF70AFF40F23F11532078
:1048B000FBF705FF00216120FBF701FF00216A20C3
:1048C000FBF7FDFE4FF440719220FBF7F8FE052147
:1048D0009320FBF7F4FE4FF480710720FBF7EFFE07
:1048E0003AE20E48808844F2315188427ED101215B
:1048F0000020FBF7E4FE0A2002F090FA41F2286162
:104900001020FBF7DCFE0E211220FBF7D8FE40F64C
:1049100039211320FBF7D3FE0A2001E0AA00002072
:1049200002F07CFA40211120FBF7C9FE502115202E
:10493000FBF7C5FE0A2002F071FA1E211220FBF7D8
:10494000BEFE0A2002F06AFA4FF4B1511020FBF7C4
:10495000B6FE42F639211320FBF7B1FE0A2002F021
:104960005DFA4FF480710120FBF7A9FE4FF440710E
:104970000220FBF7A4FE41F238010320FBF79FFE63
:1049800040F202210820FBF79AFE08210A20FBF7DB
:1049900096FE00213020FBF792FE40F202413120CA
:1049A000FBF78DFE4FF483713220FBF788FE40F257
:1049B00003513320FBF783FE4FF482713420FBF761
:1049C0007EFE40F201313520FBF779FE40F207719F
:1049D0003620FBF774FE40F205313720FBF76FFEFF
:1049E0004FF402713820FBF76AFE00E03EE040F62B
:1049F0000B713920FBF763FE02214120FBF75FFEBC
:104A00004FF41C516020FBF75AFE01216120FBF797
:104A100056FE4FF404719020FBF751FE4FF4857160
:104A20009220FBF74CFE04219320FBF748FE4FF445
:104A30008071A020FBF743FE01210720FBF73FFE1A
:104A400021210720FBF73BFE23210720FBF737FE40
:104A500033210720FBF733FE40F233110720FBF729
:104A60002EFE0021A020FBF72AFE75E1F748808882
:104A700044F2355188427CD130211520FBF71FFECE
:104A800010219A20FBF71BFE20211120FBF717FEB7
:104A900043F228411020FBF712FE02211220FBF7FF
:104AA0000EFE41F238011320FBF709FE282002F028
:104AB000B5F912210846FBF702FE282002F0AEF9F4
:104AC00043F220411020FBF7FAFD43F23801132096
:104AD000FBF7F5FD462002F0A1F900213020FBF79D
:104AE000EEFD40F202413120FBF7E9FD40F20731D3
:104AF0003220FBF7E4FD4FF441713320FBF7DFFD7B
:104B000004213420FBF7DBFD40F201413520FBF7A7
:104B1000D6FD40F207713620FBF7D1FD40F205319A
:104B20003720FBF7CCFD4FF4C2613820FBF7C7FDFF
:104B30004FF4C2613920FBF7C2FD4FF480710120B0
:104B4000FBF7BDFD4FF440710220FBF7B8FD41F2C9
:104B500030010320FBF7B3FD40F608010820FBF706
:104B6000AEFD08210A20FBF7AAFD4FF41C5160207E
:104B700000E033E0FBF7A3FD01216120FBF79FFD7F
:104B80004FF49F719020FBF79AFD4FF480719220B3
:104B9000FBF795FD4FF480719320FBF790FD4FF4E8
:104BA0004051A020FBF78BFD1021A320FBF787FDD0
:104BB00001210720FBF783FD21210720FBF77FFD63
:104BC00023210720FBF77BFD33210720FBF777FD2F
:104BD00040F233110720FBF772FDBDE09B4880884F
:104BE00041F663118842F8D1E220FBF74DFD1D200C
:104BF000FBF753FD0220FBF750FD0420FBF74DFDB2
:104C0000642002F0C3F8E020FBF73EFD0120FBF733
:104C100044FD0A2002F002F9E020FBF735FD0320F5
:104C2000FBF73BFD0C2002F0F9F80120FBF72CFD0F
:104C30000A2002F0F3F8E620FBF726FD2F20FBF711
:104C40002CFDFF20FBF729FDFF20FBF726FDB02000
:104C5000FBF71AFD2020FBF720FD0020FBF71DFDD0
:104C60000320FBF71AFD40F21F30FBF716FD012071
:104C7000FBF713FD40F2DF10FBF70FFD0020FBF701
:104C80000CFDB420FBF700FD0420FBF706FD40F20D
:104C90001F40FBF702FD0020FBF7FFFC2E20FBF777
:104CA000FCFC0020FBF7F9FC0020FBF7F6FC0020E1
:104CB000FBF7F3FC0020FBF7F0FCB620FBF7E4FC6D
:104CC0000220FBF7EAFC4FF40370FBF7E6FC002040
:104CD000FBF7E3FC1720FBF7E0FC1520FBF7DDFCFE
:104CE0000020FBF7DAFC0020FBF7D7FCF020FBF7F5
:104CF000CBFC0320FBF7D1FC2920FBF7C5FCD0201F
:104D0000FBF7C2FC0020FBF7C8FCBE20FBF7BCFC95
:104D10000520FBF7C2FCFE20FBF7BFFC0120FBF7E0
:104D2000BCFC0020FBF7B9FC0020FBF7B6FC002020
:104D3000FBF7B3FCB820FBF7A7FC0320FBF7ADFCA7
:104D40000120FBF7AAFCBA20FBF79EFC0120FBF731
:104D5000A4FC6420FCF70BF90020FCF734F90120D7
:104D60003B4908604FF6FF70FCF71CFB21B000BD0B
:104D70002DE9FC4F05460E4617469846DDF82C9067
:104D8000002001903148808846F60401884229D1EC
:104D90002E488079012825D1AB4635462B4800881E
:104DA000C01B401E86B2474628480088A0EB0B0077
:104DB000401E1FFA80F80020244988712A2048816B
:104DC0002B20888143463A4631462846CDF800904C
:104DD000FFF7CEFF01201D4988712B2048812A2032
:104DE00088811DE0781B401C80B20190344615E09C
:104DF00021462846FBF792FCFBF773FC4FF0000AB4
:104E000007E04FF0D840A0F880900AF101001FFAA7
:104E100080FA01988245F4DB601C84B24445E7DDEA
:104E2000BDE8FC8F2DE9F84F07460D4690469946A0
:104E3000DDF828B0A8EB0700401C1FFA80FAA9EBA8
:104E40000500401C80B20090002418E0AA00002059
:104E5000BC824042281981B23846FBF75FFCFBF761
:104E600040FC002607E004FB0A603BF81000F8490C
:104E70000880701C86B25645F5DB601C84B2009831
:104E80008442E7DBBDE8F88F2DE9FF4F84B081460F
:104E90008A460020039002900698A0EB0905079827
:104EA000A0EB0A06CDF80490CDF800A0002D01DD9E
:104EB000012705E00DB9002702E04FF0FF376D42F2
:104EC000002E02DD4FF0010806E016B94FF0000891
:104ED00002E04FF0FF387642B54201DD2C4600E09B
:104EE00034464FF0000B21E0009A91B2019A90B243
:104EF000FBF76DFF0398284403900298304402901A
:104F00000398A04205DD0398001B039001983844E4
:104F100001900298A04205DD0298001B02900098C3
:104F2000404400900BF101001FFA80FB601C834598
:104F3000DADD08B0BDE8F08FF0B504460D46164640
:104F40001F462B46324629462046FFF79DFF3B462B
:104F5000224629462046FFF797FF3B463246394610
:104F60002046FFF791FF3B46324629463046FFF781
:104F70008BFFF0BD2DE9F04306460F469046002416
:104F800045460320A0EB48093CE07A1B91B2321958
:104F900090B2FBF71CFF3A1B91B2721990B2FBF76B
:104FA00016FF3A1991B2721990B2FBF710FF7A19F5
:104FB00091B2321990B2FBF70AFF7A1991B2321B03
:104FC00090B2FBF704FF3A1991B2721B90B2FBF753
:104FD000FEFE7A1B91B2321B90B2FBF7F8FE3A1B31
:104FE00091B2721B90B2FBF7F2FE641CB9F1000F94
:104FF00003DAA000801D814404E0601B80000A30B9
:1050000081446D1EAC42C0DDBDE8F0832DE9F84F50
:1050100080460E4617461C46B3462046E31704EB6F
:105020005373DB1021464FEAE47C04EB5C7C4FEACF
:10503000EC0CA4EBCC0CBCF1000F02D04FF0010C37
:1050400001E04FF0000C6344224604EBD27C4FEAAF
:105050006C0C03FB0CF3DBB20093A7F12000C7B28A
:10506000002556E00C2C07D107EB4700794901EBEE
:10507000800010F8059013E0102C05D1764800EB65
:10508000071010F805900BE0182C07D107EBC700AC
:10509000724901EB800010F8059001E0BDE8F88F3F
:1050A0004FF0000A2FE009F0800030B16C48028810
:1050B00031464046FBF799FE07E00A9828B969484F
:1050C000028831464046FBF790FE4FEA49604FEABE
:1050D0001069701C86B264484088B04200DCDDE78D
:1050E000A6EB0B00A0420AD15E4608F101001FFAB0
:1050F00080F85D480088404500DCCFE706E00AF113
:10510000010000F0FF0ABAF1080FCCDB00BF681CF9
:10511000C5B200988542A5DB00BFBFE710B50246C7
:10512000012000E050430B00A1F10104E1B2F9D1EC
:1051300010BD2DE9FF4F81B0074691461E460E9DDA
:105140004FF0000A002439E0301B401EC1B20A2093
:10515000FFF7E4FFB9FBF0F00A21B0FBF1F201FB2D
:105160001208BAF1000F16D1701EA04213DDB8F17B
:10517000000F0ED10020AB4605EBDB71491001FB9F
:105180000471009088B22B4620220299FFF73EFF5F
:1051900012E04FF0010A0020AB4605EBDB7149102D
:1051A00001FB0471009088B208F13001CAB22B46AD
:1051B0000299FFF72BFF00BF601CC4B2B442C3DBEF
:1051C00005B0BDE8F08F2DE9FF4F82B0064692464C
:1051D0001F46DDE90F480020019000255CE0781BA8
:1051E000401EC1B20A20FFF799FFBAFBF0F00A2176
:1051F000B0FBF1F201FB1209019840BB781EA842F6
:1052000036DDB9F1000F31D108F0800078B108F037
:105210000100A34604EBDB71491001FB056100901E
:1052200088B2234630220399FFF7F0FE0EE008F023
:105230000100A34604EBDB71491001FB05610090FE
:1052400088B2234620220399FFF7E0FE22E00FE018
:105250008000006C06B700087ABB00086AC100082D
:105260002000002022000020AA0000200120019040
:1052700008F00100A34604EBDB71491001FB056156
:10528000009088B209F13001CAB223460399FFF7B2
:10529000BDFE00BF681CC5B2BD42A0DB06B0BDE8C4
:1052A000F08F2DE9F84704460D4690469946DDE912
:1052B000096704F0FF0A08EB04001FFA80F809EB05
:1052C00005001FFA80F916E0444502DB5446A81990
:1052D00085B24D4500DB14E0002000903A7833465B
:1052E00029462046FFF792FE304606EBD07104EBCC
:1052F00061018CB27F1C38787E2802DC3878202847
:10530000E2DA00BFBDE8F8871CB50121112002F0E8
:105310003FFD1C20009000208DF8040003208DF834
:10532000050001208DF807006946354801F0AEFF01
:105330000120009002208DF807006946314801F0F5
:10534000A5FF1CBD10B5044614B101202E490870FC
:105350002D480078002837D01021294801F0F8FFA7
:1053600078B10821264801F0F3FF50B10421244808
:1053700001F0EEFF28B10121224801F0E9FF0128E8
:1053800022D10A2001F04AFD00201F490870102197
:105390001B4801F0DDFF08B9012010BD08211848A5
:1053A00001F0D6FF08B90220F7E70421144801F004
:1053B000CFFF08B90320F0E70121124801F0C8FF30
:1053C00001281BD10420E8E710210D4801F0C0FF9F
:1053D000012813D108210A4801F0BAFF01280DD194
:1053E0000421074801F0B4FF012807D10121054835
:1053F00001F0AEFF10B90120034908700020CCE78E
:1054000000100240000002402400002000B587B0D8
:105410000121080302F016FD0121084602F0B8FC44
:1054200005221146834801F0BCFF05220621814870
:1054300001F0B7FF052207217E4801F0B2FFE0200E
:10544000009002208DF8040000208DF80600012055
:105450008DF8070002208DF805006946754801F0B7
:1054600015FF0020ADF808004FF48270ADF80A0077
:105470000020ADF80C00ADF80E00ADF810004FF4B0
:105480000070ADF812002820ADF814000020ADF82F
:1054900016000720ADF8180002A9674802F018FEB0
:1054A0000121654802F04CFF0121634802F00AFF28
:1054B00007B000BD70B504460D4600260CE030462E
:1054C000711C8EB2B0F57A7F06D15C480068401C32
:1054D0005A490860FF2070BD0221574802F0BCFF06
:1054E0000028ECD000262146534802F06CFF0CE067
:1054F0003046711C8EB2B0F57A7F06D14F480068F5
:10550000401C4E490860FF20E5E701214A4802F0AF
:10551000A3FF0028ECD0484802F052FF287000207A
:10552000D9E710B5044600BF0221454802F094FFB8
:105530000028F9D02146424802F045FF00BF012172
:105540003F4802F089FF0028F9D03D4802F038FFBB
:10555000C0B210BD00B587B00121022002F018FCD6
:105560000121880302F05DFC4FF4604005900220A9
:105570008DF8180000208DF81A0003208DF819000E
:1055800001208DF81B0005A92E4801F07FFE0522A1
:105590000D212C4801F005FF05220E21294801F0BC
:1055A00000FF05220F21274801F0FBFE012188039F
:1055B00002F08CFC00214FF4804002F087FC0020B8
:1055C000ADF800004FF48270ADF802000020ADF895
:1055D00004000220ADF806000120ADF808004002EA
:1055E000ADF80A003820ADF80C000020ADF80E0030
:1055F0000720ADF810006946114802F069FD01214D
:105600000F4802F05FFEFF20FFF78BFF07B000BDE1
:1056100010B504460A4800884FF6C771084008498B
:10562000088008460088204308800121044802F0D1
:1056300049FE10BD0000024000300140280000205B
:10564000003800400004024000B585B00021CF487A
:1056500002F038FE0020ADF800004FF48270ADF883
:1056600002000020ADF80400ADF80600ADF8080017
:105670004FF40070ADF80A003820ADF80C0000209F
:10568000ADF80E000720ADF810006946BF4802F0E3
:105690001FFD0121BD4802F015FE05B000BD1CB57F
:1056A00001210A2002F074FB4FF480500090012089
:1056B0008DF8040000208DF8060003208DF8050009
:1056C00001208DF807006946B14801F0DFFD082090
:1056D000009001208DF8040000208DF806000320C2
:1056E0008DF8050001208DF807006946A84801F0F3
:1056F000CDFD0420009001208DF8040000208DF8DD
:10570000060003208DF8050001208DF8070069468A
:10571000A04801F0BBFD1020009000208DF804008F
:1057200001208DF807006946994801F0AFFD4FF45C
:105730008051974801F026FEFFF70CFFFFF784FF2A
:1057400000209549086001209449C1F888021CBDD9
:105750002DE9F04107460D461646002090490860A5
:105760003846FFF7DEFE8046002405E0FF20FFF705
:10577000D8FE2855601CC4B2B442F7DB012088492A
:1057800008604046BDE8F0812DE9F04107460C462F
:1057900015460020824908603846FFF7C2FE804661
:1057A000002605E014F8010BFFF7BBFE701CC6B223
:1057B000AE42F7DB01207A4908604046BDE8F0813F
:1057C0001CB578A103C9CDE900011020FFF720FF27
:1057D000052269463020FFF7D7FF052269461020D1
:1057E000FFF7B6FF002406E01DF80400A52800D04E
:1057F00003E0601CC4B2052CF6DB00BF052C01D011
:1058000001201CBD0020FCE770B505460C460020B9
:10581000634908602846FFF784FE06462046FFF7E6
:1058200080FE01205D49C1F88802304670BD70B528
:10583000044600205A4908602046FFF772FEFF2008
:10584000FFF76FFE054601205449C1F8880228463B
:1058500070BD70B505461020FFF7DAFE00204E49F6
:10586000086020222946A020FFF78EFF01204F4923
:10587000C1F88C0200BF48487C3800680028FAD183
:105880000720FFF7D4FF044621462720FFF7BCFF7F
:1058900004F0100028B1FF21E120FFF7B5FF102030
:1058A00070BD04F0200008B12020F9E7FF20F7E7E1
:1058B00070B504461020FFF7ABFE0720FFF7B7FFD7
:1058C000054629462720FFF79FFF05F0400050B10D
:1058D000202221466120FFF73BFFFF21E220FFF756
:1058E00093FF002070BD0120FCE710B500202A497D
:1058F000086005222E492A20FFF746FF01212120BA
:10590000FFF782FF01212220FFF77EFF00212520E3
:10591000FFF77AFF20213120FFF776FF0F212620A5
:10592000FFF772FF0F212020FFF76EFF01201F49B4
:10593000C1F88C0210BD10B500201749086005227F
:105940001C493020FFF720FF052219492A20FFF7C4
:105950001BFF01212120FFF757FF01212220FFF724
:1059600053FF1A212420FFF74FFF00212520FFF7C6
:105970004BFF0F212620FFF747FF0E212020FFF7C6
:1059800043FF01200949C1F88C0210BD00380040D6
:1059900000040240000C02408C82404200804142E0
:1059A00088824142A5A5A5A5A5000000008040422F
:1059B000CBCE0008C6CE00081CB50121022002F0A3
:1059C000E7F94020009001208DF8040000208DF8B8
:1059D000060003208DF8050001208DF807006946B8
:1059E000C04801F053FC802000906946BD4801F09A
:1059F0004DFC0120BC490860BC49C1F89C021CBD9B
:105A000010B5B848006820F44040B6490860084620
:105A1000006840F4804008600120B349091D086017
:105A2000B249C1F89802042001F0B0F90020AE4953
:105A3000091D0860042001F0A9F90020AB49C1F854
:105A4000980210BD10B5A748006820F44040A54951
:105A500008600846006840F4804008600020A249C1
:105A60000860A249C1F89C02042001F08FF90120CE
:105A70009D4908609D49C1F89C02042001F086F907
:105A800010BD10B500249748006820F440409549A7
:105A9000086008460068086001209349091D0860F5
:105AA00001F074F901209149C1F8980201F06EF9F2
:105AB00007E0601CC4B2FA2C03DDFFF7C3FF01202E
:105AC00010BD89487C3800680028F2D186490860FA
:105AD00000BFF5E710B500208349086081480068E1
